:10000000C2C100000C9421180C944C180C94771861
:100010000C94A2180C94CD180C94F8180C94231975
:100020000C944E19E1C10000DFC10000DDC10000E9
:10003000DBC100000C94B720D7C10000D5C100007F
:10004000D3C10000D1C10000CFC10000CDC100006C
:10005000CBC10000C9C10000C7C100000C947919D0
:10006000C3C100000C944E1D0C94841DBDC1000042
:10007000BBC10000B9C10000B7C10000B5C100009C
:10008000B3C10000B1C10000AFC10000ADC10000AC
:100090000C94DA1D0C94101EA7C10000A5C100002D
:1000A000A3C10000A1C100009FC100009DC10000CC
:1000B0009BC1000099C1000097C1000095C10000DC
:1000C00093C1000091C100000C943A210C94661E6B
:1000D0000C949C1E89C100000C94F21E0C94281FE5
:1000E00083C10000FB17C517CD17D917E6170718EE
:1000F0001418AA1AAF1AB41ABE1AC81A411BD21A77
:10010000DA1AE21AEC1AF61A001B0F1B191B411B14
:10011000231B2D1B371B651B681B571B5B1B611BA0
:100120009F1B6C1B701B761B7A1B7E1B841B881B02
:100130008C1B9F1B921B961B9A1B4929072B712B0B
:10014000742B4B2A7E2A08292929EC284E2B3D2B7B
:100150004A2B742B742B742BD72800000A0B02092E
:100160000C0D0E0807030401000000000000000051
:10017000000000000000000000000000000000007F
:10018000000000000000121110000000000000003C
:10019000000000000000000000000000000000005F
:1001A0000102102020080810204010204080020189
:1001B000020108040201010204081020408080406E
:1001C000201008040201800402018040201008046D
:1001D000020108040201010204081020408001020B
:1001E00004081020408005050505070508080808D3
:1001F000020202020A0A08080404040401010101BF
:1002000001010101030303030303030304070707B9
:100210000C0C0C0C0C0C0C0C02020202060606065E
:10022000060606060B0B0B0B0B0B0B0B000020003E
:100230002300260029002C002F00320000010000BE
:1002400003010601090100002200250028002B00FF
:100250002E003100340002010000050108010B01ED
:1002600000002100240027002A002D003000330068
:1002700001010000040107010A0102001D3A277470
:10028000694E53E8F5D2CF9C81A6BBCDD0F7EAB931
:10029000A4839E25381F02514C6B76879ABDA0F32C
:1002A000EEC9D46F7255481B06213C4A57706D3E0B
:1002B000230419A2BF9885D6CBECF1130E2934671D
:1002C0007A5D40FBE6C1DC8F92B5A8DEC3E4F9AAF3
:1002D000B7908D362B0C11425F78659489AEB3E0F0
:1002E000FDDAC77C61465B0815322F5944637E2DC9
:1002F00030170AB1AC8B96C5D8FFE2263B1C0152E1
:100300004F6875CED3F4E9BAA7809DEBF6D1CC9FA8
:1003100082A5B8031E3924776A4D50A1BC9B86D5AF
:10032000C8EFF24954736E3D20071A6C71564B1892
:1003300005223F8499BEA3F0EDCAD735280F12419C
:100340005C7B66DDC0E7FAA9B4938EF8E5C2DF8C6A
:1003500091B6AB100D2A3764795E43B2AF8895C66B
:10036000DBFCE15A47607D2E3314097F6245580B50
:1003700016312C978AADB0E3FED9C400AD1D391EED
:10038000C51E511FBD1F11241FBECFEFD1E2DEBF1E
:10039000CDBF00E00CBF14E0A0E0B2E0E0E1F4E685
:1003A00000E00BBF02C007900D92A230B107D9F751
:1003B00028E0A2E0B4E001C01D92AA3CB207E1F738
:1003C00011E0C3ECD1E000E006C021970109802FC5
:1003D000FE010E948A30CE3BD10780E00807A9F7D2
:1003E0000E94FE2C0C9406320BCE1F93CF93DF930A
:1003F0001F92CDB7DEB7162F61E0812F79830E945F
:10040000A01B812F7981972F0F90DF91CF911F91A2
:1004100008950895CF93C82FCB01BA010E946A2E88
:100420008C2FCF910C94831A662311F061E001C0E8
:1004300060E00C94A01B662311F061E001C060E055
:100440000C94DC1BE0912E08F0912F08AAE9B8E08B
:1004500050964D915D916D917C915397408351835E
:100460006283738318968D919D910D90BC91A02D00
:1004700084839583A683B78308952F923F924F92EA
:100480005F926F927F928F929F92AF92BF92CF9224
:10049000DF92EF92FF920F931F93CF93DF93CDB72D
:1004A000DEB7A0970FB6F894DEBF0FBECDBF0091A8
:1004B000850810918608E0908808F090890801303E
:1004C000110519F58091750890917608A09177082B
:1004D000B0917808BC01CD016F5F7F4F8F4F9F4F68
:1004E0000E949B2E2091790830917A0840917B08D8
:1004F00050917C080E94F22F6093B9077093BA075D
:100500008093BB079093BC0713C00115110581F4BC
:10051000E091E907F091EA070190F081E02D8081F8
:100520009181A281B381F70180839183A283B383F8
:100530008091A807082E000C990B0197029710F4E0
:1005400083E001C080E08093A8078091A707082E70
:10055000000C990B0197029710F483E001C080E032
:100560008093A7072091AA023091AB024091AC0280
:100570005091AD02D7016D917D918D919C910E941A
:10058000FE2D87FF09C08091AE029091AF02A0912D
:10059000B002B091B10208C08091B2029091B30252
:1005A000A091B402B091B50280939A0890939B08F1
:1005B000A0939C08B0939D080130110531F468E9BF
:1005C00077E08EE998E00E94241720919E083091F0
:1005D0009F084091A0085091A10860919A087091DD
:1005E0009B0880919C0890919D080E94992D6B0119
:1005F0007C0120919A0230919B0240919C02509183
:100600009D020E94F22F2091960830919708409108
:100610009808509199080E94992D2091A20230913A
:10062000A3024091A4025091A5020E94F22F4B0117
:100630005C016093A2087093A3088093A408909330
:10064000A5082091A6023091A7024091A8025091DE
:10065000A902C701B6010E94F22F209192083091A1
:10066000930840919408509195080E949A2DA501F5
:1006700094010E949A2D6093A6087093A708809316
:10068000A8089093A9080E94D82E4B015C01CCD5F4
:10069000811123C0C501B4019ED581111EC020E087
:1006A00030E040E857E4C501B4010E94F22E4B014E
:1006B0005C01762E092D1A2D5B2C20E030E0A9017B
:1006C0000E94FE2D87FF0DC0C501B40190580E9405
:1006D0006F2E7195619571090AC0712C00E010E0D0
:1006E000512C672D702F812F952D0E946F2E809198
:1006F000BE029091BF02861797074CF02091C0026E
:100700003091C102CB01621773070CF4C90120912B
:100710008508309186082130310539F441E01816FA
:1007200019060CF440E04093A6074091A607442325
:1007300019F04130C9F02FC02130310561F56090CA
:10074000C3022091A807022E000C330B211531059E
:1007500031F02330310529F421E030E002C022E0FD
:1007600030E02093A80717C021303105A1F4609034
:10077000C2022091A707022E000C330B2115310570
:1007800031F02330310529F421E030E002C022E0CD
:1007900030E02093A70797FF03C0919581959109B9
:1007A000BC01990F880B990B0E949D2E4B015C0197
:1007B00020E030E04FE753E40E94FE2D87FF0DC09C
:1007C00020E030E0A901C501B4010E94EE2F181607
:1007D00054F0812C912C540106C0812C912C8FE770
:1007E000A82E83E4B82EB501A40180918A079091C8
:1007F0008B0710DEA701960160919E0270919F0207
:100800008091A0029091A1020E94F22F6093AA0809
:100810007093AB088093AC089093AD0880918508E5
:1008200090918608019771F461E070E0662011F004
:1008300060E070E085E090E0FEDD662D70E086E02F
:1008400090E0F9DD8091850890918608019791F5F7
:1008500068E977E08EE998E00E94511782E090E025
:100860000E947416E0918808F091890840815181B6
:100870006281738180E090E00E947016809185080B
:10088000909186080197B1F460917D0870917E087F
:1008900080917F08909180080E949B2E2FE632E184
:1008A00043E05BE30E94F22FAB01BC0181E090E0EA
:1008B0000E9470168091850890918608019709F032
:1008C0005FC28090810890908208A0908308B090C9
:1008D000840820E030E040E85FEBC501B4010E94ED
:1008E000FE2D882381F160917D0870917E088091B2
:1008F0007F08909180080E949B2E2FE632E143E012
:100900005BE30E94F22F6B017C019B01AC01C501EE
:10091000B4010E94992D4B015C0120E030E040E0E1
:1009200054E3C701B6010E94F22F9B01AC01C5013F
:10093000B4010E94EE2F181634F089ED92E09093E6
:10094000AA078093A90780918708882331F089ED51
:1009500092E09093AA078093A907E091E907F091AC
:10096000EA0720813181D9018D919D910D90BC9133
:10097000A02D8D839E83AF83B8878091B907909116
:10098000BA07A091BB07B091BC078B8B9C8BAD8B3A
:10099000BE8BE091BD07F091BE07C080D180E280A0
:1009A000F380E091ED07F091EE0760807180E091B7
:1009B000B107F091B2070081118122803380448019
:1009C000558096819987A781AD87E091AF07F09117
:1009D000B0071182108288E0F301D80101900D92D6
:1009E0008A95E1F7E091E707F091E80731822082EC
:1009F00029DD20E030E040E05FE3C701B6010E945E
:100A0000F22F4B015C01F101208131814281538140
:100A10000E94F22F9B01AC01D8016D917D918D91C7
:100A20009C910E949A2DF30160837183828393834A
:100A3000D10114962D913D914D915C911797C5016F
:100A4000B4010E94F22F9B01AC01F8016481758111
:100A5000868197810E949A2DD30114966D937D9380
:100A60008D939C931797E091E907F091EA07208115
:100A700031813A832983A50194016D817E818F8123
:100A800098850E949A2DA981BA816D937D938D934B
:100A90009C931397E091E707F091E8075182408219
:100AA000ECDCD0DC20E030E0A901C701B6010E94F7
:100AB000F22F4B015C0120E030E040E45FE3C7012E
:100AC000B6010E94F22F69837A838B839C83F101A4
:100AD0002081318142815381C501B4010E94F22FEE
:100AE0006F87788B898B9A8BD2012D913D914D9197
:100AF0005C9169817A818B819C810E94F22F9B019C
:100B0000AC016F85788989899A890E949A2D9B0109
:100B1000AC01F80160817181828193810E949A2DDC
:100B2000D3016D937D938D939C931397F101248151
:100B3000358146815781C501B4010E94F22F4B01D6
:100B40005C01D20114962D913D914D915C911797C6
:100B500069817A818B819C810E94F22F9B01AC017B
:100B6000C501B4010E949A2D9B01AC01F80164817A
:100B70007581868197810E949A2DD30114966D9379
:100B80007D938D939C931797E091E907F091EA0785
:100B9000A080B18029813A814B815C816D817E8109
:100BA0008F8198850E949A2DF501608371838283DD
:100BB0009383E091E707F091E807298520833D853D
:100BC00031835BDC3FDC29E33EE843E65EE3C701BB
:100BD000B6010E94F22F6F87788B898B9A8B2BEA54
:100BE0003AEA4AEA5EE3C701B6010E94F22F6F8B30
:100BF000788F898F9A8F29E33EE843EE5EE3C70141
:100C0000B6010E94F22F6B8F7C8F8D8F9E8F18A361
:100C10000F8F5E824D82898589839D859A838301AA
:100C2000AF8DB8A11896BE87AD87EF8DF8A18191E1
:100C30009191A191B191F8A3EF8F89879A87AB87A2
:100C4000BC87D1016D917D918D919D911D01ED81AB
:100C5000FE814190519061907190FE83ED83A98156
:100C6000BA81CD90DD90ED90FD90BA83A9832F8558
:100C7000388949895A890E94F22F4B015C012F89DA
:100C8000388D498D5A8DC301B2010E94F22F9B010C
:100C9000AC01C501B4010E949A2D4B015C012B8D62
:100CA0003C8D4D8D5E8DC701B6010E94F22F9B01D8
:100CB000AC01C501B4010E949A2D9B01AC0169856C
:100CC0007A858B859C850E949A2DF801619371939A
:100CD000819391938F012F8D38A18D859E85281743
:100CE000390709F0A2CFE091E907F091EA070190F6
:100CF000F081E02D8B899C89AD89BE8980839183A9
:100D0000A283B383E091AF07F091B00781E090E058
:100D1000918380838091750890917608A0917708DF
:100D2000B09178080196A11DB11D8093750890932C
:100D30007608A0937708B09378088091B9079091CE
:100D4000BA07A091BB07B091BC07E0918808F09169
:100D5000890880839183A283B38380917D089091D9
:100D60007E08A0917F08B09180080196A11DB11D59
:100D700080937D0890937E08A0937F08B0938008AD
:100D8000A0960FB6F894DEBF0FBECDBFDF91CF9116
:100D90001F910F91FF90EF90DF90CF90BF90AF9099
:100DA0009F908F907F906F905F904F903F902F908B
:100DB00008958F929F92AF92BF92CF92DF92EF925F
:100DC000FF920F931F93CF93DF9384E090E0CCD1F9
:100DD000E9EAF7E089EEDF011D928A95E9F785E8F7
:100DE00098E097838683C8E8D8E0D093EA07C09359
:100DF000E90769E778E0758B648B2EE238E0309381
:100E0000E8072093E70728E238E03093EE072093C5
:100E1000ED074DE658E05093EC074093EB074FE6A3
:100E200058E05093F0074093EF074AE258E05093A0
:100E3000F2074093F1074CE258E05093F4074093D7
:100E4000F307F0931408E0931308F583E48341E07B
:100E500050E0DC014D935C9385E598E045E358E074
:100E6000DC014D935C934DE358E050935808409358
:100E7000570845E458E050935A08409359084DE408
:100E800058E050935C0840935B0842E9C42E48E068
:100E9000D42ED901CD92DC92918780878DEE92E09D
:100EA000938782874AE858E059834883812C912CA4
:100EB000A0E8AA2EAFEBBA2E809281089092820809
:100EC000A0928308B0928408BFE68B2EB2E19B2EDD
:100ED000B3E0AB2EBBE3BB2EEB0188829982AA82E2
:100EE000BB82CDE5D8E081E99BE0AEEEBEEA888327
:100EF0009983AA83BB8385E197EAA4E9BEEB80933B
:100F0000610890936208A0936308B093640883EB30
:100F100099E2A9EBBCED8093650890936608A093D5
:100F20006708B09368088DEC91EBABEABCE0809366
:100F3000690890936A08A0936B08B0936C08A0E2CC
:100F4000B4E0B383A283E4E1F4E01196FC93EE9362
:100F50008EE993E091838083938382839583848356
:100F60009783868388EA97E09187808787EA97E06E
:100F70009387828723E738E015963C932E93149746
:100F80001396DC93CE93129717965C934E93169715
:100F900084E1EAE9F8E0DF011D928A95E9F788E04B
:100FA000E60119928A95E9F7C4E7D7E085E3FE01E7
:100FB000982F11929A95E9F7E2E0F4E092E1DF01CF
:100FC0001D929A95E9F7D901ED93FC9320E130E069
:100FD000318320832AE732E0338322832AE532E01B
:100FE0003583248326E232E0378326832AE032E009
:100FF000318720879FEF9AAB22E32E8393E39F8371
:1010000034E33887898786E38A8787E38B8788E399
:101010008C8789E38D8781E38E8730E33F87888BD8
:10102000898B8A8B2B8B8C8B9D8B812C912C5401E3
:10103000839489829A82AB82BC82E12CF12C870155
:10104000A801970167E070E080E090E0CED99F8B27
:101050008E8BDFD911E01D83188E1D8E898E9A8E9E
:10106000AB8EBC8E61E070E085E090E0DDD91D8F35
:101070001E8E1BA28F8E98A2A9A2BAA261E070E078
:1010800086E090E0D1D91BA31CA21DA21EA21FA224
:10109000EAE9F2E0848D958DA68DB78DE60188830F
:1010A0009983AA83BB8380A191A1A2A1B3A18C83C0
:1010B0009D83AE83BF83DF91CF911F910F91FF90EE
:1010C000EF90DF90CF90BF90AF909F908F9008955A
:1010D0008091740781111BC081E080937407809117
:1010E000750790917607A0917707B09178070197DF
:1010F000A105B10561F480917907882341F040E0B2
:1011000050E0BA0180918A0790918B0783D9809132
:101110008C07811103C081E080938C078091920736
:10112000811103C081E080939207089560E070E030
:1011300080E89FE7089560E070E080E89FE7089509
:1011400060E070E080E89FEF089560E070E080E884
:101150009FEF089560E070E080EC9FEF089560E0FD
:1011600070E080EC9FEF0895F5DF6093BA0870930C
:10117000BB088093BC089093BD08F1DF6093AE0874
:101180007093AF088093B0089093B108CFDF60935D
:10119000B6087093B7088093B8089093B908CBDF6E
:1011A0006093B2087093B3088093B4089093B50825
:1011B000C7DF6093BE087093BF088093C008909308
:1011C000C108C3DF6093C2087093C3088093C4084A
:1011D0009093C5080895CF92DF92EF92FF92CF933C
:1011E0006B017C012091B6083091B7084091B80896
:1011F0005091B9080E94FE2DC1E0882371F0209122
:10120000BE083091BF084091C0085091C108C70185
:10121000B6010E94FE2D8111C0E08C2FCF91FF906E
:10122000EF90DF90CF900895CF93C1E09B01AC0188
:101230000E94FE2D811101C0C0E08C2FCF91089536
:10124000EF92FF920F931F93CF93DF93DC01EA019C
:10125000F90114968D919C91159712960D911C9100
:101260001397080F191F2881398118964D915C91A9
:1012700019974217530728F04D915C911197452B10
:1012800039F17801E21AF30A18964D915C91199799
:10129000481B590B4E0D5F1D4617570794F1A901C6
:1012A000460F571F40175107E0F0F182E082338369
:1012B00022836E197F0975836483161617061CF442
:1012C000382F292F02C030E020E03683278313C057
:1012D00018968D919C911997821B930B86179707EF
:1012E00084F0718360833383228315821482178292
:1012F000168288819981680F791F7983688380E0DD
:1013000001C081E0DF91CF911F910F91FF90EF908D
:101310000895CF92DF92EF92FF92CF93DF936B010C
:101320007C0184E48C9DE0018D9DD00D1124C45D71
:10133000DB4F8AA99BA9009721F00E9455311BAA77
:101340001AAA84E48C9DF0018D9DF00D1124E45DBA
:10135000FB4F86A997A9009711F00E94553184E4AC
:101360008C9DF0018D9DF00D1124E45DFB4F138ADF
:10137000128A168A178A108E118E128E138E148E70
:10138000158E168E178E10A211A281E090E093A305
:1013900082A315A214A216A217A210A611A613A624
:1013A00012A615A614A616A617A610AA11AA13AA65
:1013B00012AA15AA14AA17AA16AA11AE10AE12AE36
:1013C00013AE14AE15AEDF01DE961D921D921D9276
:1013D0001C921397EE5BFF4F11821082DF91CF9129
:1013E000FF90EF90DF90CF9008950F931F93CF93CE
:1013F000DF93EB01DC018D919C91FC01A681B7810B
:10140000E881F98123E0EE0FFF1F2A95E1F712969C
:101410002D913C911397E20FF31F00811181AC8550
:10142000BD859D01220F331FDC0112968D919C9189
:101430001397D901A80FB91F8D919C9124813581F3
:10144000232B19F461E070E002C062E070E0689F55
:101450009001699F300D789F300D11248885998502
:10146000289FB001299F700D389F700D1124EC81C9
:10147000FD812E9FC0012F9F900D3E9F900D112446
:10148000800F911FFA019183808373836283DF91C0
:10149000CF911F910F9108952F923F924F925F929B
:1014A0006F927F928F929F92AF92BF92CF92DF9274
:1014B000EF92FF920F931F93CF93DF9300D000D052
:1014C000CDB7DEB7DC011496ED91FC911597019034
:1014D000F081E02D808591859A838983A281B381F3
:1014E000BC83AB83FB0181909190A190B1908F015F
:1014F000C12CD12C7601C814D904EA04FB040CF0E9
:101500005FC0D80114964D905D906D907C901797B8
:1015100018964D915D916D917C911B97F801709695
:10152000FE83ED83F801A081B18183E0AA0FBB1F88
:101530008A95E1F7E981FA8182819381A80FB91F29
:101540002D903C901197F80124853585220F331F8B
:101550008B819C81280F391FF9010081118114961C
:101560008D919C911597892B19F481E090E002C030
:1015700082E090E0809F9001819F300D909F300D20
:101580001124249F8001259F100D349F100D1124DC
:10159000249DC001259D900D349D900D1124A8011E
:1015A0006D817E81820D931D0E94ED318D819E8122
:1015B000080F191F9FEFC91AD90AE90AF90A9BCF28
:1015C00026960FB6F894DEBF0FBECDBFDF91CF9148
:1015D0001F910F91FF90EF90DF90CF90BF90AF9051
:1015E0009F908F907F906F905F904F903F902F9043
:1015F0000895CF93DF93DB01AC53BD4F2C91222391
:1016000069F024E4269FF001279FF00D1124E45D8A
:10161000FB4FEF0119922A95E9F71C9224E4269FCB
:10162000F001279FF00D1124E45DFB4F1482158219
:10163000168217821186108613861286118A108AE6
:1016400017861686DF91CF9164CE2F923F924F92EC
:101650005F926F927F928F929F92AF92BF92CF9242
:10166000DF92EF92FF920F931F93CF93DF93CDB74B
:10167000DEB728970FB6F894DEBF0FBECDBF6B0163
:101680007C011A0184E48C9D90018D9D300D112404
:10169000245D3B4FF90184819581A681B781892B17
:1016A0008A2B8B2B09F4B8C0A12CB12C412C512CC6
:1016B000320138872F83C90104969A838983D9011F
:1016C0001896BC83AB83E981FA8180819181A281E4
:1016D000B381481659066A067B0694F5AB81BC8136
:1016E000ED91FC91EA0DFB1D228133818901812C52
:1016F000912C82149304C4F4D801ED91FC9130979D
:1017000069F0848195812D833E830E945531F801D3
:10171000808191810E9455313E812D81FFEF8F1A8A
:101720009F0A0E5F1F4FE5CFC9010E9455318FEF11
:10173000481A580A680A780A94E0A90EB11CC3CF67
:10174000AF81B88518968D919C9119970E9455315B
:10175000EF81F88582859385892B59F1A12CB12CD5
:10176000812C912C84E48C9D80018D9D100D112481
:101770000A5C1B4F8214930484F4D801ED91FC9110
:10178000EA0DFB1D848195810E945531BFEF8B1AB4
:101790009B0AEEE0AE0EB11CEDCF84E48C9DF0010F
:1017A0008D9DF00D1124E45DFB4F828593850E9491
:1017B000553184E48C9D90018D9D300D112489015B
:1017C000045D1B4FD80150968D919C9151970E94BA
:1017D0005531F801868597850E945531C701B601BC
:1017E00098DDC701B60128960FB6F894DEBF0FBE8C
:1017F000CDBFDF91CF911F910F91FF90EF90DF90C0
:10180000CF90BF90AF909F908F907F906F905F90A0
:101810004F903F902F90EDCE28960FB6F894DEBFF4
:101820000FBECDBFDF91CF911F910F91FF90EF9031
:10183000DF90CF90BF90AF909F908F907F906F90F0
:101840005F904F903F902F90089524E4269FF001E1
:10185000279FF00D1124E45DFB4F82899389049743
:10186000029758F485E090E0938B828B8FEF9FEF87
:10187000DC01828F938FA48FB58F08952F923F92B2
:101880004F925F926F927F928F929F92AF92BF9290
:10189000CF92DF92EF92FF920F931F93CF93DF933C
:1018A000CDB7DEB7E0970FB6F894DEBF0FBECDBF61
:1018B0009AA389A31B016A012801390184E4849D4C
:1018C0008001859D100D11249801245D3B4F790105
:1018D000D9014D925D926D927C921397AB01C30139
:1018E000B201B3DEF801E05DFB4FD6014D915D9191
:1018F0006D917D918D01CA01408351836283738311
:1019000064E070E00E94A630F70191878087892B00
:1019100009F499C11E8E1D8E198E1A8E1B8E1C8E77
:10192000F8A2EF8E97012C5F3F4F38A72FA32C5FB3
:101930003F4F3AA729A7EFA1F8A580819181A28105
:10194000B381298D3A8D4B8D5C8D281739074A0755
:101950005B070CF0E4C0A9A5BAA58D919C912D8DD3
:101960003E8D280F391F3A8B298BD801ED91FC91C0
:10197000EE0FFF1FA9A1BAA18D919C91E80FF91F4D
:1019800080819181F90191838083D80114962D91F2
:101990003D914D915C9117972BA33CA34DA35EA362
:1019A000085F1F4F62E070E0C1010E94A630E98924
:1019B000FA8993838283892B09F445C11D8A1E8A83
:1019C0001F8A188E2D893E894F89588D8BA19CA125
:1019D000ADA1BEA1281739074A075B070CF08CC0E0
:1019E000D801ED90FC90EE0CFF1CE989FA89C280C9
:1019F000D380CE0CDF1C68E070E081E090E00E94B4
:101A0000A630D6018D939C93E989FA8982819381CE
:101A1000FC01EE0DFF1DC080D180C114D10409F47A
:101A200012C1D80114964D915D916D917C911797DB
:101A3000CA01F6014083518362837383085F1F4F9D
:101A400064E070E00E94A630D60115969C938E93B8
:101A50001497892B09F4F7C01C8A1B8A812C912CBE
:101A60005401F60180819181A281B3818816990683
:101A7000AA06BB06A4F5F601E480F5802B893C8913
:101A8000E20EF31EF801DE01119680E101900D9245
:101A90008A95E1F7005F1F4FA701BE016F5F7F4F7F
:101AA000A9A1BAA114968D919C9115979EDCF6017F
:101AB00026813781D70112968D919C911397820FC1
:101AC000931F97838683BFEF8B1A9B0AAB0ABB0ACF
:101AD0002B893C892C5F3F4F3C8B2B8BC2CF2D89B0
:101AE0003E894F89588D2F5F3F4F4F4F5F4F2D8B52
:101AF0003E8B4F8B588F66CF298D3A8D4B8D5C8DE9
:101B00002F5F3F4F4F4F5F4F298F3A8F4B8F5C8F27
:101B10002D8D3E8D2C5F3F4F3E8F2D8F0CCF6EE075
:101B200070E0C1010E94A630AF8DB8A11B969C93B6
:101B30008E931A97812C912CA12CB12CC12CD12CD5
:101B400024E4249DC001259D900D11249C012A5C54
:101B50003B4F3A8B298B21E030E0A214B3040CF008
:101B60004AC0D8014D915D916D917D918D01CA0161
:101B7000E989FA89E080F180E80CF91C57FD63C01F
:101B8000D70111963C932E930097A1F02FA738AB65
:101B90004BA75CA76DA77EA70E94C030F701958375
:101BA00084832FA538A94BA55CA56DA57EA5892B9F
:101BB00031F449C0D70115961C921E921497F70173
:101BC000538342838481958197838683918780871D
:101BD0001386128681E090E0452B462B472B11F4AB
:101BE00080E090E0C80ED91EFFEFAF1ABF0A4EE0AA
:101BF000840E911CB2CF84E4849D8001859D100DDC
:101C00001124045D1B4FD8011D961C921E921C9737
:101C1000C60133E0880F991F3A95E1F70E94C03062
:101C2000F801918B808B892B71F0C601880F991F69
:101C30000E94C030D8011F969C938E931E97892BCB
:101C400011F080E005C0A101C301B201FEDC81E01A
:101C5000E0960FB6F894DEBF0FBECDBFDF91CF91F7
:101C60001F910F91FF90EF90DF90CF90BF90AF90BA
:101C70009F908F907F906F905F904F903F902F90AC
:101C800008952F923F924F925F926F927F928F9220
:101C90009F92AF92BF92CF92DF92EF92FF920F93FB
:101CA0001F93CF93DF93CDB7DEB768970FB6F89445
:101CB000DEBF0FBECDBF9C8B8B8BDB0149015A0170
:101CC00024E4289DC001299D900D11249C01245DD0
:101CD0003B4F79012D913C911197F701358B248B66
:101CE000FC01EE5BFB4F14964D915D916D917C91E3
:101CF00017974083518362837383FC01EA5BFB4F38
:101D000018964D915D916D917C911B974083518305
:101D100062837383FC01E65BFB4F1C964D915D91E2
:101D20006D917C911F974083518362837383FC0183
:101D3000E65AFB4F50965C91509751964C915197B3
:101D400052963C91529753962C91539750834183CE
:101D5000328323838D010C5E1F4F852F942F18161D
:101D600019060CF068C0880F991F880F991F0E94F0
:101D7000C030D701D3969C938E93D297892B09F4C8
:101D8000BCC0212C312C412C512C32019701225DF9
:101D90003F4F3E8B2D8B2C5F3F4F388F2F8B2E5F0D
:101DA0003F4F3A8B298BB301A2012FEF421A520AFF
:101DB000620A720AED89FE8980819181A281B381D4
:101DC000481759076A077B074CF5AF89B88DCD9046
:101DD000DC90C20CD31CF801DE01119680E1019069
:101DE0000D928A95E1F7005F1F4FA601BE016F5F5C
:101DF0007F4FEB89FC8984819581F7DAA989BA89BB
:101E00008D919C911197F60122813381820F931F4E
:101E10008D939C93F4E02F0E311CC5CFD701D4963F
:101E20008D919C91D5970E94C030F70197AB86ABFE
:101E3000892B09F462C0F80180819181A281B3816C
:101E400024E4289DF001299DF00D1124E45DFB4F51
:101E5000AC01BD014D7F21E030E0452B462B472BE7
:101E600011F020E030E033A322A324E4289DF00108
:101E7000299DF00D1124E45DFB4F0197A109B109E3
:101E800021E030E00297A105B10510F020E030E03C
:101E900035A324A384E4889DF001899DF00D1124CD
:101EA000CF018E5A9B4FD80114964D915D916D9143
:101EB0007C911797DC014D935D936D937C93139701
:101EC000E45DFB4F868D978DA0A1B1A1B7FF10C037
:101ED000B095A095909581959F4FAF4FBF4F82AF22
:101EE00093AFA4AFB5AF168E178E10A211A20AC081
:101EF00012AE13AE14AE15AE05C0C501B40109DAB9
:101F000081E001C080E068960FB6F894DEBF0FBE96
:101F1000CDBFDF91CF911F910F91FF90EF90DF9098
:101F2000CF90BF90AF909F908F907F906F905F9079
:101F30004F903F902F900895CF92DF92EF92FF92B3
:101F4000CF93DF931092B40424E4269FF001279FDF
:101F5000F00D1124E45DFB4F15A614A620E030E03F
:101F6000C12CD12CDF011A96C1E0D0E0C416D506F1
:101F7000D4F4ED91FC911197E20FF31FE280F3800E
:101F80001E141F0454F4E480F580F782E682F18683
:101F9000E08613861286D183C083EFEFCE1ADE0A65
:101FA000225F3F4FE3CF24E4269FF001279FF00DEF
:101FB0001124E45DFB4F13A612A611AE10AEDF0193
:101FC000DE961D921D921D921C92139782E090E066
:101FD000938B828BDF91CF91FF90EF90DF90CF902A
:101FE000089524E4269FF001279FF00D1124E45D5D
:101FF000FB4F138A128A29CB24E4269FF001279FE6
:10200000F00D1124E45DFB4F8289938981309105A5
:10201000C8F08530910518F0059769F008958FEFA5
:102020009FEFDC01828F938FA48FB58F85E090E0C6
:10203000938B828B08958FEF9FEFDC01828F938FBC
:10204000A48FB58F089524E4249FF001259FF00DFF
:102050001124E45DFB4F2EE0AC01249FC001259FBD
:10206000900D11240284F385E02DE80FF91F81E023
:102070008093B404828593859187808740855185BC
:102080002681378181E090E04217530711F080E00C
:1020900090E09183808308952F923F924F925F92B8
:1020A0006F927F928F929F92AF92BF92CF92DF9268
:1020B000EF92FF920F931F93CF93DF93CDB7DEB7CD
:1020C000C255D1090FB6F894DEBF0FBECDBF219621
:1020D0009FAF8EAF21974BA75CA76DA77EA7480146
:1020E000590184E4889D8001899D100D1124F80117
:1020F000E45DFB4F2285338527963FAF2EAF2797B0
:1021000082899389029709F060C186A597A5A0A945
:10211000B1A9892B8A2B8B2B29F484E090E0938B37
:10212000828B53C18489958921964EAD5FAD2197ED
:102130004817590709F049C186A997A99AAB89ABF5
:102140001EAE1DAE19AE1AAE1BAE1CAE8F01DF0166
:102150009E962996BFAFAEAF2997F2962B96FFAF0A
:10216000EEAF2B979801285C3F4F2D963FAF2EAFD7
:102170002D97A8014A5D5F4F2F965FAF4EAF2F9707
:10218000C801829661969FAF8EAF61971A9763964A
:10219000BFAFAEAF63972996EEADFFAD29978081B3
:1021A0009181A281B38129AD3AAD4BAD5CAD2817C9
:1021B00039074A075B070CF0E7C02B96EEADFFAD81
:1021C0002B97808191812DAD3EAD280F391F3EABFD
:1021D0002DABD90112960D90BC91A02D2396BFAFC7
:1021E000AEAF2397B695A795B695A7952596BFAFA1
:1021F000AEAF25972D96EEADFFAD2D9780819181E5
:10220000892B09F496C02F96AEADBFAD2F97CD9018
:10221000DD90ED90FC9029A83AA8F9010190F08199
:10222000E02DF8ABEFA718AE1FAA8FA998AD2596A1
:10223000AEADBFAD25978A179B070CF07AC06196AB
:10224000AEADBFAD61978D919C91892B69F1EFA5E2
:10225000F8A94080518062807380A7019601C30174
:10226000B2010E94EE2F87FD0BC0A7019601D1019C
:102270006D917D918D919C910E94FE2D87FD8CC06A
:10228000A7019601C301B2010E94EE2F181664F453
:10229000A7019601F10160817181828193810E9481
:1022A000FE2D882309F478C06396AEADBFAD639769
:1022B0008D919C91892B69F1EFA5F8A940805180FF
:1022C00062807380A7019601C301B2010E94FE2DB6
:1022D00087FF0BC0A7019601D1016D917D918D9172
:1022E0009C910E94EE2F87FF57C0A7019601C30162
:1022F000B2010E94FE2D81110CC0A7019601F101CF
:1023000060817181828193810E94EE2F18160CF4F6
:1023100043C02FA938AD2F5F3F4F38AF2FAB34E00C
:10232000230E311C4FA558A94C5F5F4F58AB4FA7E8
:102330007CCFEDA9FEA96081718123964EAD5FAD82
:10234000239789A99AA90E94ED3125968EAD9FAD5C
:102350002597880F991F880F991F29A93AA9280F37
:10236000391F3AAB29AB89AD9AADABADBCAD019687
:10237000A11DB11D89AF9AAFABAFBCAFADADBEADC6
:102380001496BEAFADAF07CF81E090E0D801D996EB
:102390009C938E93D89719C084E4889DF001899D01
:1023A000F00D1124E45DFB4F868D978DA0A1B1A1A6
:1023B000892B8A2B8B2B09F064C284E090E0938BED
:1023C000828B86AD97AD93A782A784E4889DF001A8
:1023D000899DF00D1124E45DFB4F82899389823041
:1023E000910571F482AD93ADA4ADB5AD1816190683
:1023F0001A061B060CF04CC2CC24C394D12C05C089
:10240000049709F045C2C12CD12C8EE02196EEAD87
:10241000FFAD21978E9F70018F9FF00C112427969E
:102420002EAD3FAD2797E20EF31ED70112964D91C8
:102430005C9113974115510509F42AC216968D91A6
:102440009C9117979AA789A7FE01319684E1DF0135
:102450001D928A95E9F7898A9A8AAB8ABC8AC11447
:10246000D10409F457C084E4889DF001899DF00DE2
:102470001124E45DFB4FDF01DE964D905D906D9081
:102480007C9082AD93ADA4ADB5AD481659066A06F1
:102490007B0609F03FC0F701648175810084F185F6
:1024A000E02D84819581A681B7819C018D8B9E8BC7
:1024B000AF8BB88F285F3F4F3E8B2D8BD70118967F
:1024C0008D919C911997280F391F19963C932E9343
:1024D000189718968D919C911997460F571F841B3A
:1024E000950B97FD06C0860F971F19969C938E93A8
:1024F000189784E4889DF001899DF00D1124E65918
:10250000FB4FB1E04B1A51086108710840825182BB
:10251000628273829E012B5E3F4FAE01475D5F4F2B
:1025200064E170E0C7010E942009082F10E0011546
:10253000110509F091C18CE090E0A0E0B0E08D833E
:102540009E83AF83B8879E01235E3F4FAE01475DF8
:102550005F4F64E070E0C7010E942009082F10E07F
:102560000115110509F078C180E190E0A0E0B0E02C
:102570008D839E83AF83B8874D8D5E8DBE01655D73
:102580007F4F8F8D98A10E94ED318BA19CA1009768
:1025900061F06D8D7E8DEBE2F0E0EC0FFD1F6E0FB4
:1025A0007F1F49A15AA10E94ED311DA21EA21FA2A8
:1025B00018A621962EAD3FAD2197220F331F38AFBD
:1025C0002FAB24E4289DC001299D900D1124845D2A
:1025D0009B4FAC014C5F5F4F5AAF49AFDC0118967F
:1025E000BEAFADAF2DA13EA14FA158A529AB3AABCF
:1025F0004BAB5CABE9ADFAAD80819181A281B38137
:10260000281739074A075B070CF0CFC0ADADBEAD48
:10261000ED91FC9189A99AA9880F991F880F991F9C
:10262000E80FF91FA081B1818C91882309F4AFC014
:10263000833009F4ACC00280F381E02D2FA938ADBE
:10264000E20FF31F4081518158AB4FA7452B09F48E
:102650009EC089859A85AB85BC850196A11DB11D5B
:1026600089879A87AB87BC879E01235E3F4FAE0167
:10267000475D5F4F64E070E0C7010E94200990E071
:10268000009709F0E8C08D819E81AF81B8850496DE
:10269000A11DB11D8D839E83AF83B8874D8D5E8D47
:1026A000BE016B5D7F4F8F8D98A10E94ED318BA194
:1026B0009CA1009761F06D8D7E8DA5E2B0E0AC0F1E
:1026C000BD1F6A0F7B1F49A15AA10E94ED311EAAAE
:1026D0001DAA412C512C3201EFA5F8A980819181CE
:1026E000A281B381481659066A067B060CF04FC0DA
:1026F000EFA5F8A9248035802DA93EA9220E331E0E
:10270000D10112966D917C9113979E01235E3F4FEC
:10271000AE01475D5F4FC7010E94200990E000971E
:1027200009F099C0F10182819381092E000CAA0B56
:10273000BB0B4D815E816F817885840F951FA61F2D
:10274000B71F8D839E83AF83B887608171814D8D64
:102750005E8D8F8D98A10E94ED318BA19CA1009779
:1027600059F0D1016D917C912D8D3E8D620F731FBB
:1027700049A15AA10E94ED31BFEF4B1A5B0A6B0AC7
:102780007B0AEDA9FEA93496FEABEDABA5CF49A817
:102790005AA86BA87CA8FFEF4F1A5F0A6F0A7F0A3E
:1027A0004DA25EA26FA278A61DCF89859A85AB85C2
:1027B000BC85892B8A2B8B2B09F44EC08AE190E0D3
:1027C000A0E0B0E089839A83AB83BC8321962EADD1
:1027D0003FAD2197C901330FAA0BBB0B8D879E8795
:1027E000AF87B88B4D895E89BE016F5F7F4F8F8940
:1027F000988D0E94ED318B8D9C8D009761F06D89D5
:102800007E8941E050E04C0F5D1F640F751F498DBC
:102810005A8D0E94ED3189A59AA5D70117969C93F0
:102820008E93169711961C921E92CD2889F184E4FE
:10283000889DF001899DF00D1124E659FB4F8081A0
:102840009181A281B3810196A11DB11D80839183E5
:10285000A283B3831DC08C01CD28D1F4012BC1F01C
:1028600084E4889DF001899DF00D1124E45DFB4F07
:1028700081E090E095A784A785E090E0938B828B20
:1028800007C083E090E0938B828B81E090E09BCD4A
:10289000CE5ADF4F0FB6F894DEBF0FBECDBFDF912B
:1028A000CF911F910F91FF90EF90DF90CF90BF904D
:1028B000AF909F908F907F906F905F904F903F90E0
:1028C0002F900895CF92DF92EF92FF920F931F9374
:1028D0006B017C0184E48C9DF0018D9DF00D112431
:1028E000E45DFB4F82899389009709F450C00197FA
:1028F000B9F482A593A59C012F5F3F4F33A722A770
:10290000092E000CAA0BBB0B028D138D248D358D67
:1029100080179107A207B307D1F5C701B6010CDBF9
:1029200084E48C9DF0018D9DF00D1124E45DFB4F3E
:1029300082899389039759F582A593A59C012F5FFE
:102940003F4F33A722A7092E000CAA0BBB0B468DC5
:10295000578D60A171A184179507A607B707BCF032
:1029600086AD97AD93A782A784E090E0938B828B8E
:1029700082AD93ADA4ADB5AD181619061A061B06A7
:1029800034F4EE5BFF4F81E090E0918380831F91F0
:102990000F91FF90EF90DF90CF90089524E4269F51
:1029A000F001279FF00D1124E45DFB4F828993898C
:1029B0000497B1F482A593A5019693A782A7092E47
:1029C000000CAA0BBB0B46895789608D718D84174B
:1029D0009507A607B70721F485E090E0938B828BDB
:1029E00008952F923F924F925F926F927F928F92B3
:1029F0009F92AF92BF92CF92DF92EF92FF920F938E
:102A00001F93CF93DF93CDB7DEB72E970FB6F89411
:102A1000DEBF0FBECDBF49835A836B837C834901E0
:102A2000442E552E24E4249DF001259DF00D112403
:102A3000E45DFB4F228833889101245031091586CB
:102A400014862230310508F0DDC0DC0111961C929D
:102A50001E9213961C921E921297A12CB12C60E02C
:102A600070E09F01265F3F4F38872F837F013CE056
:102A7000E30EF11CDF015096BA87A9879F01225F00
:102A80003F4F3C872B87681579050CF06FC0EF81AD
:102A9000F885A081B1819D012A0D3B1D3E872D87C0
:102AA000D9012D913C911197232B09F059C018960B
:102AB0000D911C9119971296ED91FC911397FE833D
:102AC000ED8316962D913C911797D7014D915C910E
:102AD000DA01E3E0AA0FBB1FEA95E1F7E985FA8581
:102AE000C080D180FD01EC0DFD1D440F551FAB854D
:102AF000BC85CD90DC904C0D5D1DDA016D937C930F
:102B0000D7014D915C9111974F5F5F4F4D935C934F
:102B100013830283AD85BE851B963C932E931A9733
:102B20000217130748F4201B310B318320831582D1
:102B300014821782168214C0AD85BE851496CD907E
:102B4000DC9015974D815E814C0D5D1D401B510B36
:102B5000518340832C193D0935832483D782C68253
:102B60006F5F7F4FBEE0AB0EB11C8DCF24E4249D80
:102B70008001259D100D1124045D1B4FF801248553
:102B80003585DC0111963C932E934089518913962B
:102B90005C934E9312974685578515965C934E939A
:102BA0001497232BA1F5B5E02B16310481F5109273
:102BB000B404828D938DA48DB58DAE014F5F5F4FB0
:102BC00064E070E08F3F9F4FAF4FBF4F59F480E2FA
:102BD00090E00E94D82469817A818B819C81A40134
:102BE00000DA15C08FE190E00E94D824D8019B96AE
:102BF0001C921E929A9781E090E053969C938E933C
:102C0000529705C0FC0111821082138212822E9607
:102C10000FB6F894DEBF0FBECDBFDF91CF911F91ED
:102C20000F91FF90EF90DF90CF90BF90AF909F906B
:102C30008F907F906F905F904F903F902F9008956E
:102C4000EF92FF920F931F93CF93DF937C018B0141
:102C5000EA010E945B25811121C08091C6029091FA
:102C6000C702049711F183E090E09093C70280932C
:102C7000C6021BC098819111F0CF28ED38EB45E0DA
:102C800050E060E070E0CB010E94E527AE01B801A2
:102C9000C7010E94F327C8010E94BE278091B50496
:102CA0009091B604892B31F3D8CFDF91CF911F914A
:102CB0000F91FF90EF900895CF93DF932091C6027C
:102CC0003091C7022430310541F0EB010E94F32717
:102CD000CE01DF91CF910C94BE27DF91CF91089563
:102CE0000C94052C0C94FA2B0C94E82B0C94CE2706
:102CF0000C948C2B089560E070E080E090E00C94E0
:102D000036250895AF92BF92CF92DF92EF92FF9255
:102D10000F931F93CF93DF931F921F92CDB7DEB710
:102D20005C0169017A018B0180E090E0C114D1045B
:102D3000E104F104F1F0C114D10421E0E206F10450
:102D400010F4A60102C04FEF5FEF9E012F5F3F4FCF
:102D5000B801C5010E94A82C8F3F2FEF920749F0C0
:102D600029813A81C21AD30AE108F108020F131F20
:102D7000DDCF0F900F90DF91CF911F910F91FF90BA
:102D8000EF90DF90CF90BF90AF90089582E043D551
:102D9000892B69F083E03FD54091B7045091B80486
:102DA0006091B9047091BA04892B69F011C083E075
:102DB00032D54091B7045091B8046091B904709134
:102DC000BA04892B29F0415051096109710904C0E5
:102DD0004F5F5F4F6F4F7F4F4093B7045093B804DE
:102DE0006093B9047093BA04089583E014D5892BD5
:102DF00069F082E010D54091B7045091B804609119
:102E0000B9047091BA04892B69F011C082E003D52E
:102E10004091B7045091B8046091B9047091BA041C
:102E2000892B29F04F5F5F4F6F4F7F4F04C0415098
:102E30005109610971094093B7045093B804609334
:102E4000B9047093BA040895CF93DF93EC0120E0A6
:102E500030E040E85FE3FB01608171818281938112
:102E60000E94FE2D81111AC06091B7047091B804C0
:102E70008091B9049091BA040E949D2E20E030E028
:102E800048EC53E40E94022E20E030E044EB53E48F
:102E90000E94F22F688379838A839B83DF91CF918D
:102EA0000895CF93DF93EB0120E030E040E85FE34B
:102EB000688179818A819B810E94FE2D882309F493
:102EC00047C062E082E03CD462E083E039D462E053
:102ED00084E036D461E085E033D461E086E030D42C
:102EE00061E087E02DD484E096D4892B59F061E02D
:102EF00085E062D460E086E05FD46FEF70E087E049
:102F000002D3F1CF1092B7041092B8041092B90412
:102F10001092BA0460E085E04FD460E086E04CD4C3
:102F200060E070E087E0EFD241E050E066EC76E1EF
:102F300080E013D041E050E065EF76E181E00DD014
:102F400080E090E0A0E8BFE388839983AA83BB83F5
:102F5000DF91CF91089508950895883008F070C0EA
:102F6000A82FB0E0AA0FBB1FA853BD4F11967C93AA
:102F70006E9390E0FC013197E730F105A0F58827CA
:102F8000EE58FF4F8F4F0C948A30809169008C7FF0
:102F9000482B40936900E89A089580916900440F96
:102FA000551F440F551F837F482B40936900E99AB2
:102FB00008958091690074E0440F551F7A95E1F7F8
:102FC0008F7C482B40936900EA9A089580916900AC
:102FD00066E0440F551F6A95E1F78F73482B4093C5
:102FE0006900EB9A089580916A008C7F482B40938A
:102FF0006A00EC9A089580916A00440F551F440FAF
:10300000551F837F482B40936A00ED9A0895809165
:103010006A0024E0440F551F2A95E1F78F7C482B66
:1030200040936A00EE9A089580916A0096E0440FFA
:10303000551F9A95E1F78F73482B40936A00EF9ADA
:1030400008951F920F920FB60F9211240BB60F9294
:103050002F933F934F935F936F937F938F939F93A0
:10306000AF93BF93EF93FF93E091CC02F091CD0229
:103070001995FF91EF91BF91AF919F918F917F91A2
:103080006F915F914F913F912F910F900BBE0F90D9
:103090000FBE0F901F9018951F920F920FB60F92B0
:1030A00011240BB60F922F933F934F935F936F931F
:1030B0007F938F939F93AF93BF93EF93FF93E09191
:1030C000CE02F091CF021995FF91EF91BF91AF9190
:1030D0009F918F917F916F915F914F913F912F9130
:1030E0000F900BBE0F900FBE0F901F9018951F9260
:1030F0000F920FB60F9211240BB60F922F933F939E
:103100004F935F936F937F938F939F93AF93BF93EF
:10311000EF93FF93E091D002F091D1021995FF91C6
:10312000EF91BF91AF919F918F917F916F915F913F
:103130004F913F912F910F900BBE0F900FBE0F90AC
:103140001F9018951F920F920FB60F9211240BB675
:103150000F922F933F934F935F936F937F938F9330
:103160009F93AF93BF93EF93FF93E091D202F091BF
:10317000D3021995FF91EF91BF91AF919F918F91DC
:103180007F916F915F914F913F912F910F900BBE67
:103190000F900FBE0F901F9018951F920F920FB6B1
:1031A0000F9211240BB60F922F933F934F935F937F
:1031B0006F937F938F939F93AF93BF93EF93FF93FF
:1031C000E091C802F091C9021995FF91EF91BF916A
:1031D000AF919F918F917F916F915F914F913F91AF
:1031E0002F910F900BBE0F900FBE0F901F90189550
:1031F0001F920F920FB60F9211240BB60F922F93BE
:103200003F934F935F936F937F938F939F93AF936E
:10321000BF93EF93FF93E091CA02F091CB0219950F
:10322000FF91EF91BF91AF919F918F917F916F919E
:103230005F914F913F912F910F900BBE0F900FBE5A
:103240000F901F9018951F920F920FB60F92112496
:103250000BB60F922F933F934F935F936F937F9390
:103260008F939F93AF93BF93EF93FF93E091D4021B
:10327000F091D5021995FF91EF91BF91AF919F9178
:103280008F917F916F915F914F913F912F910F900F
:103290000BBE0F900FBE0F901F9018951F920F92AC
:1032A0000FB60F9211240BB60F922F933F934F93AB
:1032B0005F936F937F938F939F93AF93BF93EF939E
:1032C000FF93E091D602F091D7021995FF91EF910B
:1032D000BF91AF919F918F917F916F915F914F912E
:1032E0003F912F910F900BBE0F900FBE0F901F902C
:1032F00018951F920F920FB60F9211242F933F93A0
:103300008F939F93AF93BF938091BC049091BD0422
:10331000A091BE04B091BF043091BB0423E0230F01
:103320002D3720F40196A11DB11D05C026E8230FFD
:103330000296A11DB11D2093BB048093BC04909301
:10334000BD04A093BE04B093BF048091C0049091CB
:10335000C104A091C204B091C3040196A11DB11D86
:103360008093C0049093C104A093C204B093C3049B
:10337000BF91AF919F918F913F912F910F900FBE71
:103380000F901F9018953FB7F8948091C0049091CA
:10339000C104A091C204B091C30426B5A89B05C086
:1033A0002F3F19F00196A11DB11D3FBFBA2FA92FC4
:1033B000982F8827820F911DA11DB11DBC01CD0141
:1033C00042E0660F771F881F991F4A95D1F708952D
:1033D0008F929F92AF92BF92CF92DF92EF92FF9225
:1033E0006B017C01D0DF4B015C01C114D104E1040D
:1033F000F104F1F0B0DDC7DFDC01CB0188199909D8
:10340000AA09BB09883E9340A105B10570F321E0EC
:10341000C21AD108E108F10888EE880E83E0981EF0
:10342000A11CB11CC114D104E104F10421F7DDCFCA
:10343000FF90EF90DF90CF90BF90AF909F908F90D4
:103440000895789484B5826084BD84B5816084BD1C
:1034500085B5826085BD85B5816085BDEEE6F0E00D
:10346000808181608083E1E8F0E010828081826069
:103470008083808181608083E0E8F0E080818160EA
:103480008083E1EBF0E0808184608083E0EBF0E01A
:10349000808181608083E1E9F0E0808182608083C7
:1034A000808181608083E0E9F0E0808181608083B9
:1034B000E1EAF0E0808182608083808181608083A6
:1034C000E0EAF0E0808181608083E1E2F1E08081E8
:1034D00082608083808181608083E0E2F1E080818E
:1034E00081608083EAE7F0E080818460808380816E
:1034F0008260808380818160808380818068808316
:103500001092C10008951F93CF93DF93182FEB0102
:1035100061E016D1209711F460E004C0CF3FD105DF
:1035200031F461E0812FDF91CF911F9145C1E12FEF
:10353000F0E0E65AFE4FE4914E2F50E0FA01319749
:10354000E231F10508F09DC08827E758FF4F8F4F03
:103550000C948A3084B5806884BDC7BD97C084B59B
:10356000806284BDC8BD92C08091800080688093D5
:103570008000D0938900C093880088C0809180002B
:10358000806280938000D0938B00C0938A007EC0BD
:1035900080918000886080938000D0938D00C093DC
:1035A0008C0074C08091B00080688093B000C0939C
:1035B000B3006CC08091B00080628093B000C09373
:1035C000B40064C080919000806880939000D09394
:1035D0009900C09398005AC08091900080628093B7
:1035E0009000D0939B00C0939A0050C080919000AF
:1035F000886080939000D0939D00C0939C0046C04B
:103600008091A00080688093A0008091A0008F7BB3
:103610008093A000D093A900C093A80037C08091E8
:10362000A00080628093A000D093AB00C093AA005A
:103630002DC08091A00088608093A000D093AD0041
:10364000C093AC0023C0809120018068809320014A
:10365000D0932901C093280119C080912001806274
:1036600080932001D0932B01C0932A010FC0809139
:103670002001886080932001D0932D01C0932C01FC
:1036800005C0C038D1050CF04CCF46CFDF91CF91AB
:103690001F91089590E0FC013197E231F10508F0A7
:1036A0004EC08827E557FF4F8F4F0C948A3080918A
:1036B00080008F7703C0809180008F7D8093800091
:1036C000089580918000877FF9CF84B58F7702C0FD
:1036D00084B58F7D84BD08958091B0008F7703C03D
:1036E0008091B0008F7D8093B0000895809190000C
:1036F0008F7707C0809190008F7D03C080919000EC
:10370000877F8093900008958091A0008F7707C0F5
:103710008091A0008F7D03C08091A000877F80935F
:10372000A0000895809120018F7707C0809120012B
:103730008F7D03C080912001877F809320010895B1
:10374000CF93DF9390E0FC01E056FE4F2491FC0103
:10375000EA51FE4F8491882361F190E0880F991F10
:10376000FC01E05AFD4FC591D491FC01EA5BFD4F8D
:10377000A591B491611109C09FB7F89488812095F3
:1037800082238883EC912E230BC0623061F49FB7B3
:10379000F8943881822F809583238883EC912E2B97
:1037A0002C939FBF06C08FB7F894E8812E2B2883F7
:1037B0008FBFDF91CF9108951F93CF93DF93282F71
:1037C00030E0F901E65AFE4F8491F901E056FE4FD0
:1037D000D491F901EA51FE4FC491CC23C1F0162FC8
:1037E000811158DFEC2FF0E0EE0FFF1FEA5BFD4F79
:1037F000A591B4918FB7F894111105C09C91ED2F4C
:10380000E095E92302C0EC91ED2BEC938FBFDF91A3
:10381000CF911F910895CF93DF93282F30E0F901C6
:10382000E65AFE4F8491F901E056FE4FD491F9011A
:10383000EA51FE4FC491CC2389F081112BDFEC2F8C
:10384000F0E0EE0FFF1FE45DFD4FA591B491EC9108
:10385000ED2381E090E021F480E002C080E090E080
:10386000DF91CF910895FC01918D228D892F90E0F9
:10387000805C9F4F821B91098F7399270895FC01EB
:10388000918D828D981731F0828DE80FF11D858D15
:1038900090E008958FEF9FEF0895FC01918D828D48
:1038A000981761F0828DDF01A80FB11D5D968C9194
:1038B000928D9F5F9F73928F90E008958FEF9FEF9F
:1038C0000895FC01848DDF01A80FB11DA35ABF4FDD
:1038D0002C91848D90E001968F739927848FA6890F
:1038E000B7892C93A089B1898C9180648C93938D36
:1038F000848D981306C00288F389E02D80818F7D26
:1039000080830895CF93DF93EC01888D8823C1F0E5
:10391000EA89FB89808185FD05C0A889B9898C91D8
:1039200086FD0EC00FB607FCF5CF808185FFF2CF74
:10393000A889B9898C9185FFEDCFCE01C2DFE8CF90
:10394000DF91CF910895EF92FF920F931F93CF9342
:10395000DF93EC0181E0888F9B8D8C8D981305C0DF
:10396000E889F989808185FD23C0F62E0B8D10E052
:103970000F5F1F4F0F731127E02E8C8DE8120BC0C5
:103980000FB607FCFACFE889F989808185FFF5CF6A
:10399000CE0197DFF2CF8B8DFE01E80FF11DE35AC8
:1039A000FF4FF0820B8FEA89FB898081806207C01C
:1039B000EE89FF896083E889F9898081806480834A
:1039C00081E090E0DF91CF911F910F91FF90EF90F8
:1039D0000895CF92DF92EF92FF921F93CF93DF93E0
:1039E000EC016A017B01122FE889F98982E080836A
:1039F0004115514E61057105B1F060E079E08DE34C
:103A000090E0A70196010E946830DA01C901019790
:103A1000A109B109B695A79597958795AC01411570
:103A200080E15807A8F0E889F989108260E874E815
:103A30008EE190E0A70196010E946830BA01A901C9
:103A400041505109610971097695679557954795D8
:103A5000EC85FD855083EE85FF854083188EEC89CB
:103A6000FD891083EA89FB89808180618083EA89EE
:103A7000FB89808188608083EA89FB8980818068F6
:103A80008083EA89FB8980818F7D8083DF91CF915C
:103A90001F91FF90EF90DF90CF9008951F920F92AB
:103AA0000FB60F9211240BB60F922F938F939F9303
:103AB000EF93FF93E091D404F091D5048081E091DD
:103AC000DA04F091DB0482FD12C090818091DD0464
:103AD0008F5F8F732091DE04821751F0E091DD0437
:103AE000F0E0EC53FB4F958F8093DD0401C08081A3
:103AF000FF91EF919F918F912F910F900BBE0F909F
:103B00000FBE0F901F9018951F920F920FB60F9235
:103B100011240BB60F922F933F934F935F936F93A4
:103B20007F938F939F93AF93BF93EF93FF9384EC17
:103B300094E0C7DEFF91EF91BF91AF919F918F917C
:103B40007F916F915F914F913F912F910F900BBE9D
:103B50000F900FBE0F901F901895E4ECF4E01382C5
:103B6000128288EE93E0A0E0B0E084839583A68380
:103B7000B78385EA93E09183808385EC90E0958715
:103B8000848784EC90E09787868780EC90E0918B27
:103B9000808B81EC90E0938B828B82EC90E0958B14
:103BA000848B86EC90E0978B868B118E128E138E11
:103BB000148E08951F920F920FB60F9211240BB618
:103BC0000F922F938F939F93EF93FF93E091710543
:103BD000F09172058081E0917705F091780582FD82
:103BE00012C0908180917A058F5F8F7320917B0541
:103BF000821751F0E0917A05F0E0EF59FA4F958F76
:103C000080937A0501C08081FF91EF919F918F9100
:103C10002F910F900BBE0F900FBE0F901F90189515
:103C20001F920F920FB60F9211240BB60F922F9383
:103C30003F934F935F936F937F938F939F93AF9334
:103C4000BF93EF93FF9381E695E03BDEFF91EF9109
:103C5000BF91AF919F918F917F916F915F914F91A4
:103C60003F912F910F900BBE0F900FBE0F901F90A2
:103C70001895E1E6F5E01382128288EE93E0A0E069
:103C8000B0E084839583A683B78385EA93E091832C
:103C900080838DEC90E0958784878CEC90E097870B
:103CA000868788EC90E0918B808B89EC90E0938BF9
:103CB000828B8AEC90E0958B848B8EEC90E0978BD6
:103CC000868B118E128E138E148E08951F920F9272
:103CD0000FB60F9211240BB60F922F938F939F93D1
:103CE000EF93FF93E0910E06F0910F068081E09133
:103CF0001406F091150682FD12C09081809117067E
:103D00008F5F8F7320911806821751F0E09117068C
:103D1000F0E0E250FA4F958F8093170601C0808142
:103D2000FF91EF919F918F912F910F900BBE0F906C
:103D30000FBE0F901F9018951F920F920FB60F9203
:103D400011240BB60F922F933F934F935F936F9372
:103D50007F938F939F93AF93BF93EF93FF938EEFD8
:103D600095E0AFDDFF91EF91BF91AF919F918F9162
:103D70007F916F915F914F913F912F910F900BBE6B
:103D80000F900FBE0F901F901895EEEFF5E0138285
:103D9000128288EE93E0A0E0B0E084839583A6834E
:103DA000B78385EA93E09183808385ED90E09587E2
:103DB000848784ED90E09787868780ED90E0918BF3
:103DC000808B81ED90E0938B828B82ED90E0958BE0
:103DD000848B86ED90E0978B868B118E128E138EDE
:103DE000148E08951F920F920FB60F9211240BB6E6
:103DF0000F922F938F939F93EF93FF93E091AB06D6
:103E0000F091AC068081E091B106F091B20682FD9E
:103E100012C090818091B4068F5F8F732091B50698
:103E2000821751F0E091B406F0E0E556F94F958F16
:103E30008093B40601C08081FF91EF919F918F9193
:103E40002F910F900BBE0F900FBE0F901F901895E3
:103E50001F920F920FB60F9211240BB60F922F9351
:103E60003F934F935F936F937F938F939F93AF9302
:103E7000BF93EF93FF938BE996E023DDFF91EF91E2
:103E8000BF91AF919F918F917F916F915F914F9172
:103E90003F912F910F900BBE0F900FBE0F901F9070
:103EA0001895EBE9F6E01382128288EE93E0A0E029
:103EB000B0E084839583A683B78385EA93E09183FA
:103EC000808385E391E09587848784E391E09787F9
:103ED000868780E391E0918B808B81E391E0938BE7
:103EE000828B82E391E0958B848B86E391E0978BC4
:103EF000868B118E128E138E148E08958F929F9240
:103F0000AF92BF92CF92DF92EF92FF920F931F93E7
:103F1000CF93DF937C018B016C0182E0C80ED11C32
:103F20004701E5E08E0E911CC0E0D0E0F601619102
:103F30006F014AE050E0C801C6D05C016EE2C801E2
:103F400067D08A0D9B1DC80FD91FC814D90471F7FB
:103F50004AE050E0F7016581C801B5D08C0F9D1F84
:103F6000DF91CF911F910F91FF90EF90DF90CF9055
:103F7000BF90AF909F908F900895E8E3F7E085EBB6
:103F800093E09183808312821382148215820895B4
:103F9000CF92DF92EF92FF920F931F93CF93DF9315
:103FA0006C017A018B01C0E0D0E0CE15DF0589F00D
:103FB000D8016D918D01D601ED91FC910190F081B8
:103FC000E02DC6011995892B11F47E0102C02196BE
:103FD000ECCFC701DF91CF911F910F91FF90EF9030
:103FE000DF90CF9008956115710579F0FB01019084
:103FF0000020E9F73197AF01461B570BDC01ED912B
:10400000FC910280F381E02D199480E090E0089506
:10401000DC01ED91FC910190F081E02D19944F921B
:104020005F926F927F92EF92FF920F931F93CF93C5
:10403000DF93CDB7DEB7A1970FB6F894DEBF0FBE02
:10404000CDBF7C01FA01CB0119A2223008F42AE08D
:104050008E010F5D1F4F422E512C612C712CBF0120
:10406000A30192010E946830F901CA0101501109AF
:104070006A3014F4605D01C0695CD8016C93232B35
:10408000242B252B61F7B801C701ADDFA1960FB630
:10409000F894DEBF0FBECDBFDF91CF911F910F917E
:1040A000FF90EF907F906F905F904F900895211553
:1040B000310541F4DC01ED91FC910190F081E02D9E
:1040C000642F1994ACCF9A01462F50E060E070E065
:1040D000EECF8230A9F028F4882349F0813051F0E6
:1040E0000895843021F1E8F0853039F10895109277
:1040F0006E00089580916F008D7F80936F0008950A
:10410000809170008D7F8093700081E08093B0007B
:104110008091B100887F84608093B1001092B300D9
:104120000895809171008D7F809371000895809132
:1041300072008D7F809372000895809173008D7F4F
:10414000809373000895CF93C82F8091D8028C1369
:1041500007C0EAE7F2E0E4918FEF8093D80201C054
:10416000EFEF8E2FB6DF60E08C2FCF9125CB1F9223
:104170000F920FB60F9211240BB60F922F933F930D
:104180004F935F936F937F938F939F93AF93BF935F
:10419000EF93FF938091410790914207A0914307CD
:1041A000B0914407892B8A2B8B2B51F180913E07CC
:1041B000E0913F07F09140079081892780838091AB
:1041C000410790914207A0914307B0914407181608
:1041D00019061A061B06BCF480914107909142070C
:1041E000A0914307B09144070197A109B1098093B9
:1041F000410790934207A0934307B093440703C03D
:104200008091D802A0DFFF91EF91BF91AF919F9174
:104210008F917F916F915F914F913F912F910F906F
:104220000BBE0F900FBE0F901F90189540E855E2FF
:1042300060E070E080E090E000C08130910571F0B6
:104240001CF4892B39F008958230910559F00397B9
:1042500069F0089526E084EC94E00BC026E081E646
:1042600095E007C026E08EEF95E003C026E08BE9DD
:1042700096E0AFCB1F920F920FB60F9211240BB6A0
:104280000F922F933F934F935F936F937F938F93EF
:104290009F93AF93BF93EF93FF9383E89FEF909328
:1042A0002501809324010E94E22CFF91EF91BF91A0
:1042B000AF919F918F917F916F915F914F913F91BE
:1042C0002F910F900BBE0F900FBE0F901F9018955F
:1042D00083E89FEF9093250180932401A3E7B0E04A
:1042E0008C918E7F8C93E0E2F1E080818C7F8083E3
:1042F000E1E2F1E08081877E808380818460808339
:1043000080818C7F80838C9181608C930895E3E71A
:10431000F0E080818E7F8083089581E008956F9220
:104320007F928F929F92AF92BF92CF92DF92EF9245
:10433000FF920F931F93CF93DF935C017B014A01A0
:1043400001E010E00E151F0564F568018FEFC81A33
:10435000D80AE801CC0FDD1FC80DD91D688079800F
:1043600061147104E1F067EB73E0C3010E94FD3159
:10437000892B19F41982188212C06AEB73E0C30109
:104380000E94FD31892B59F4CE14DF0441F06801FD
:10439000E2E0CE0ED11C198218821B821A8286019D
:1043A000D1CF81E0F5018083B401C7010E94322C96
:1043B000F5019283818380E090E0DF91CF911F919E
:1043C0000F91FF90EF90DF90CF90BF90AF909F90B4
:1043D0008F907F906F90089585E497E0089580E036
:1043E00008950F931F93CF93DF938B01BA01E901D7
:1043F000198218829801012E000C440B550BFC0108
:10440000818192810E948216019621F0198308838E
:1044100080E001C081E0DF91CF911F910F9108955D
:104420000F931F93CF93DF931F921F92CDB7DEB7E9
:10443000FB018A01B9019E012F5F3F4FAF01FC01D3
:10444000818192810E94492C019639F089819A815B
:10445000F8019183808380E001C081E00F900F908C
:10446000DF91CF911F910F910895FC0180810895F4
:104470000895089581E0FB01808380E00895089508
:1044800010926F070895FC01818192810C94272C72
:10449000CF93DF93CDB7DEB72A970FB6F894DEBF80
:1044A0000FBECDBFAC01CB0160E070E049835A8301
:1044B0006B837C83092E000CAA0BBB0B8D839E8320
:1044C000AF83B8879E01275F3F4FAE014F5F5F4FBD
:1044D00068E070E080915E0790915F0782DF811154
:1044E00008C081E029853A852830310519F480E03B
:1044F00001C081E02A960FB6F894DEBF0FBECDBF93
:10450000DF91CF9108950F931F93CF93DF931F9265
:104510001F92CDB7DEB78B019E012F5F3F4FAC01DD
:1045200080915E0790915F075CDF811108C081E098
:1045300029813A812017310719F480E001C081E018
:104540000F900F90DF91CF911F910F910895CF930E
:10455000DF93EC01109262071092610710926E07D0
:1045600010926D07AC0160E070E0CB010E94F10F8A
:10457000AE0161E070E080E090E00E94F10F809178
:104580005E0790915F07DF91CF9179CF4F925F9255
:104590006F927F928F929F92AF92BF92CF92DF9253
:1045A000EF92FF920F931F93CF93DF931F921F926F
:1045B000CDB7DEB79C016C0197FF03C087E0C80E42
:1045C000D11C43E0D594C7944A95E1F7C90168E04E
:1045D00070E00E9455307C0189010E5F1F4F809171
:1045E0005C0790915D07801791070CF0DCC080910B
:1045F0005A0790915B07009731F00E945531109255
:104600005D0710925C07C8010E94C03090935B0761
:1046100080935A07892B29F010935D0700935C075C
:10462000C2C0A12CB12CAC14BD040CF05EC0412C56
:10463000512C320100E010E098012D59384FAE01A5
:104640004F5F5F4F61E070E080915E0790915F0780
:10465000E7DE811198C189819A812FEF421A520AAF
:10466000620A720A20E942162FE5520621E062062C
:1046700071043CF060916D0770916E078DEE90E0D3
:104680002DC0080F191F0A30110551F549E050E0FF
:1046900060E070E083E697E00E94D42C60916D07A3
:1046A00070916E078823C1F080916B0790E06817C6
:1046B000790709F0B8CF8EEE90E0EADE80916D07C1
:1046C00090916E070196992790936E0780936D07DE
:1046D0008FEFA81AB80AA7CF8FEE90E0D9DEA7CF48
:1046E0000A3011050CF4A8CF9ECFEF2809F44BC176
:1046F000C12CD12C760100E010E098012D59384FE3
:10470000AE014F5F5F4F61E070E080915E07909176
:104710005F0786DE811137C189819A812FEFC21A26
:10472000D20AE20AF20A20E9C2162FE5D20621E0F7
:10473000E206F1043CF060916D0770916E078DEE1A
:1047400090E02AC0080F191F0A30110539F549E019
:1047500050E060E070E083E697E00E94D42C609126
:104760006D0770916E078823A9F080916B0790E028
:104770006817790709F007C18EEE90E089DE809115
:104780006D0790916E070196992790936E0780931D
:104790006D07F9C08FEE90E07BDEAACF0A301105DD
:1047A0000CF4ABCFF0C000E010E00C151D050CF0D0
:1047B00077C0412C512C3201A12CB12C480193E03F
:1047C000880C991C9A95E1F720915A0730915B0764
:1047D000C4018A0D9B1D280F391FAE014F5F5F4F2B
:1047E00061E070E080915E0790915F0719DE8111B2
:1047F000CAC089819A812FEF421A520A620A720A4C
:1048000020E942162FE5520621E0620671043CF0D1
:1048100060916D0770916E078DEE90E034C0A80E28
:10482000B91E8AE0A816B104A9F549E050E0B40128
:1048300080915A0790915B070E94D42C60916D077C
:1048400070916E078823E9F080915A0790915B0779
:10485000FC01E80DF91D808590E06817790709F0E3
:10486000A4CF8EEE90E014DE80916D0790916E07DC
:104870000196992790936E0780936D070F5F1F4FE6
:1048800094CF8FEE90E004DE412C512C3201A12C0C
:10489000B12C9ACF2AE0A216B1040CF495CF85CFA3
:1048A000E114F10409F46AC0680183E0CC0CDD1C5A
:1048B0008A95E1F7812C912C540100E010E09801D9
:1048C0002D59384FAE014F5F5F4F61E070E080912E
:1048D0005E0790915F07A4DD811155C089819A819F
:1048E0002FEF821A920AA20AB20A20E982162FE555
:1048F000920621E0A206B1043CF060916D07709130
:104900006E078DEE90E034C0080F191F0A301105B4
:1049100089F549E050E060E070E083E697E00E94AE
:10492000D42C60916D0770916E078823F9F0809107
:104930006B0790E06817790709F58EEE90E0A8DD27
:1049400080915A0790915B07A70163E677E08C0D91
:104950009D1D0E94ED3180916D0790916E0701962B
:10496000992790936E0780936D0708C08FEE90E0B3
:104970008FDDA0CF0A3011050CF4A1CF80915A072A
:1049800090915B0702C080E090E00F900F90DF9164
:10499000CF911F910F91FF90EF90DF90CF90BF903C
:1049A000AF909F908F907F906F905F904F90089501
:1049B000CF92DF92EF92FF920F931F93CF93DF93EB
:1049C0001F92CDB7DEB76C017B018A01452B31F018
:1049D000AB0160E070E0C801E3D78983B701C6018D
:1049E00057DD81110DC00115110551F0B701C80146
:1049F0008ADD811105C061E070E0CE01019683DDA2
:104A00000F90DF91CF911F910F91FF90EF90DF906A
:104A1000CF900895CF92DF92EF92FF92CF93DF93E2
:104A2000CDB7DEB728970FB6F894DEBF0FBECDBF67
:104A30006B01E12CF12CC982DA82EB82FC822D839E
:104A40003E834F835887AE014F5F5F4F68E070E051
:104A5000AFDF28960FB6F894DEBF0FBECDBFDF9153
:104A6000CF91FF90EF90DF90CF9008950F931F9319
:104A7000CF93DF93EC018B01AFDC90935F078093C2
:104A80005E07009739F0A801BE0149DCEC01892BD3
:104A900019F40BC0C6ECD3E080915E0790915F07DC
:104AA000E7DC10925F0710925E07CE01DF91CF9195
:104AB0001F910F91089580915E0790915F07D5CC6B
:104AC0002F923F924F925F926F927F928F929F921E
:104AD000AF92BF92CF92DF92EF92FF920F931F930C
:104AE000CF93DF93CDB7DEB769970FB6F894DEBFEB
:104AF0000FBECDBF20916207222309F426C25D8B31
:104B00004C8B688B798B8A8B9B8B9A01AB01BC0198
:104B1000CE0101960E94F11410E038E0232E312CD2
:104B200089819A81181619060CF00AC21F861E8602
:104B30001D861C8689819A81AC85BD85A817B90719
:104B40000CF0F3C1EB81FC812E853F85E20FF31F52
:104B500020813181309359072093580784819581B2
:104B6000909357078093560742815381509355077E
:104B700040935407468157815093530740935207FF
:104B8000820F931F9C01990F440B550B2E8B3F8B6B
:104B9000488F598FC12CD12C76012E893F89488DA1
:104BA000598DC216D306E406F50608F0A2C11F828D
:104BB00060915807709159078B01072E000C220B4A
:104BC000330BD701C6010496A11DB11D80179107B3
:104BD000A207B30728F4E0915407F09155070AC0E3
:104BE000E4E0F0E0E61BF70BEC0DFD1D80915207B1
:104BF00090915307E80FF91F4080512C612C712CC4
:104C0000D701C6010596A11DB11D80179107A20706
:104C1000B30728F4E0915407F09155070AC0E5E086
:104C2000F0E0E61BF70BEC0DFD1D80915207909113
:104C30005307E80FF91F8081582AD701C60106964D
:104C4000A11DB11D80179107A207B30728F4E091B9
:104C50005407F09155070AC0E6E0F0E0E61BF70BB9
:104C6000EC0DFD1D8091520790915307E80FF91F3D
:104C70008081682AD701C6010796A11DB11D801742
:104C80009107A207B30728F4E0915407F091550764
:104C90000AC0E7E0F0E0E61BF70BEC0DFD1D80918C
:104CA000520790915307E80FF91F8081782A460137
:104CB000570148E0840E911CA11CB11C0815190570
:104CC0002A053B0508F4B4C0C016D106E206F30677
:104CD00038F480915407909155078C0D9D1D09C0A3
:104CE000C601861B970B2091520730915307820F04
:104CF000931F68E070E007DCE0915807F0915907D6
:104D00009F010F2E000C440B550BD301C201880DDF
:104D1000991DAA1DBB1D281739074A075B07C8F054
:104D200082169306A406B50638F4209154073091F4
:104D30005507C601089609C0C1018E1B9F0B8C0D3B
:104D40009D1D2091520730915307820F931FB2018E
:104D500099C08601BF01685071096C197D098216DE
:104D60009306A406B50638F42091540730915507F0
:104D7000C601089609C0C1018E1B9F0B8C0D9D1D9D
:104D80002091520730915307820F931FBCDB809113
:104D9000580790915907B101681B790B600F711F7B
:104DA000640D751D8091520790915307ACDB809183
:104DB000580790915907AC0148505109FA01E01B7E
:104DC000F10BAC01092E000C660B770B84169506CF
:104DD000A606B70638F42091540730915507C6014E
:104DE00008960AC09101281B390BC9018C0D9D1D25
:104DF0002091520730915307820F931FAF0160E05B
:104E000070E0CED58F832091580730915907A101CA
:104E1000421B530B9A01200F311F240D351D40E01A
:104E200050E0682F8091520790915307A5D550C04C
:104E3000C016D106E206F306C8F46C197D0980910C
:104E40005407909155078C0D9D1D5DDB809158078F
:104E500090915907B101681B790B6C0D7D1D640D94
:104E6000751D80915207909153070CC0C601861B97
:104E7000970B2091520730915307B201685F7F4F23
:104E8000820F931F40DB8091580790915907AC0126
:104E9000092E000C660B770B84169506A606B7063E
:104EA00038F42091540730915507C60108960AC07E
:104EB000D101A81BB90BCD018C0D9D1D209152076E
:104EC00030915307820F931FA20160E070E068D514
:104ED0008F8361E070E0CE01079615DB182FB8E0F4
:104EE0004B0E511C611C711CC40CD51CE61CF71C1C
:104EF00054CE8C859D85880F991FED81FE81E80F2A
:104F0000F91F488959896A897B89808191810E942A
:104F100023104C855D854F5F5F4F5D874C878E8585
:104F20009F8508969F878E8705CE2C893D89488965
:104F300059896A897B89CE0101960E94F114F0CDCE
:104F4000112319F08C899D8902DB69960FB6F894BC
:104F5000DEBF0FBECDBFDF91CF911F910F91FF90AC
:104F6000EF90DF90CF90BF90AF909F908F907F9009
:104F70006F905F904F903F902F900895CF93DF9365
:104F8000EC01AC0160E070E0CB019ADDAE0161E0C4
:104F900070E080E090E0DF91CF9192CDCF9380914F
:104FA0005E0790915F071BDAC82F81110BC060E08C
:104FB00070E0CB010E94F90A61E070E080E090E0CF
:104FC0000E94F90A8C2FCF9108950F931F938901A6
:104FD0009A01AB01BC0180915E0790915F0749DAAD
:104FE0001F910F9108953F924F925F926F927F921F
:104FF0008F929F92AF92BF92CF92DF92EF92FF92E9
:105000000F931F93CF93DF93CDB7DEB767970FB69C
:10501000F894DEBF0FBECDBF6C017B015A018091B9
:105020006207882331F080916207882309F45CC30A
:105030000AC062E677E080915E0790915F071ADA16
:10504000811152C3F0CF809161071A82198288239F
:1050500009F46AC0E0E94E2EEFE55E2E6624639403
:10506000712C00E010E09801285B384FAE014F5FD3
:105070005F4F61E070E080915E0790915F07D0D94B
:10508000982E81114DC089819A81080F191F011531
:10509000110509F445C081E0481A510861087108FA
:1050A00039F460916D0770916E078DEE90E030C01D
:1050B0000A30110589F549E050E060E070E088E4CD
:1050C00097E072D460916D0770916E078823F1F0BC
:1050D0008091500790E068177907D9F48EEE90E040
:1050E000D7D988E0E8E4F7E0DE01199601900D9247
:1050F0008A95E1F720916D0730916E072F5F3F4F42
:10510000332730936E0720936D070AC08FEE90E02F
:10511000BFD91A82198204C00A3011050CF4A3CF3A
:1051200081E029813A8124C000E010E078E0672E18
:10513000712C29E030E02C0F3D1F200F311FAE01F4
:105140004F5F5F4FB301601B710B80915E079091C1
:105150005F0766D9982E29813A81811108C0020F14
:10516000131F0115110519F00830110514F381E022
:10517000121613060CF080E09110B3C2882309F4D4
:10518000B3C280916107811104C019861A861B86FB
:105190001C8689859A85AB85BC858031910508F090
:1051A000A3C2FC018827E356FF4F8F4FB3C7D60138
:1051B0001696ED91FC91179780819181A281B38120
:1051C00089839A83AB83BC83AE014F5F5F4F64E0FA
:1051D00070E085E190E07DC18D859E85D7D90097EF
:1051E00031F42FEF3FEFA90161E070E00EC0FC0148
:1051F00080809180A280B380A701C501B4010E9484
:105200009C0FA501940160E070E08DE190E067C221
:105210008D859E85BBD9009721F42FEF3FEFA90123
:1052200010C0DC018D909D90AD90BD90AD019501B9
:105230008401B701C6010E943E0CA5019401882398
:1052400019F061E070E002C060E070E08BE190E096
:1052500046C28D859E859AD9009721F42FEF3FEFA6
:10526000A9010FC0FC0181909190A190B190BF0164
:10527000A5019401C6010E94410EA5019401882355
:1052800019F061E070E002C060E070E08CE190E055
:1052900026C2D6011496ED91FC91159700811181DB
:1052A000F80182809380A080B18060E1462E512C6D
:1052B000612C712C49825A826B827C8288E090E05A
:1052C000A0E0B0E08D839E83AF83B8879E012F5E00
:1052D0003F4FAE014F5F5F4F68E070E080915E0727
:1052E00090915F077ED8882319F000E010E0BAC0E3
:1052F00089899A890897C9F7D801ED90FC90B8E0A0
:10530000EB0EF11CEE0CFF1CEE0CFF1CC70138D796
:105310008C01892B51F349825A826B827C82C701AE
:105320000F2C000CAA0BBB0B8D839E83AF83B88719
:105330009E012F5E3F4FAE014F5F5F4F68E070E010
:1053400080915E0790915F074CD881118BC089894D
:105350009A89089709F086C0D6011296ED91FC91C2
:1053600013974081518162817381D8014D935D9380
:105370006D937C9313974481558166817781149650
:105380004D935D936D937C9317974085518562850E
:10539000738518964D935D936D937C931B978485CD
:1053A0009585A685B785F80184879587A687B787F1
:1053B000108A118A128A138A84E090E0A0E0B0E09B
:1053C000848B958BA68BB78B8091C6029091C70278
:1053D000A0E0B0E0808F918FA28FB38FC5010B2C1E
:1053E000000CAA0BBB0B848F958FA68FB78FF4018F
:1053F000D801909680E090E08A159B0554F4419185
:10540000519160E070E04D935D936D937D930196B3
:10541000F3CF9E012F5E3F4FA801B70180915E0739
:1054200090915F070E94F12181111CC089899A899E
:105430008E159F05B9F4A70160E070E0C801B0D2F5
:105440008B8B9E012F5E3F4FAE014D5E5F4F61E043
:1054500070E080915E0790915F070E94F12181E0EA
:1054600080936107C80167960FB6F894DEBF0FBE40
:10547000CDBFDF91CF911F910F91FF90EF90DF9003
:10548000CF90BF90AF909F908F907F906F905F90E4
:105490004F903F900AC78D859E85AF85B88900974C
:1054A000A105B10521F481E0809360071DC16ED88C
:1054B000009789F481E090E0A0E0B0E089839A83CE
:1054C000AB83BC83AE014F5F5F4F64E070E082E16D
:1054D00090E06EDA09C1BC01C6010E944C0A198233
:1054E0001A821B821C82AE014F5F5F4F64E070E046
:1054F00082E190E05DDA8111F7C0D5CFD601149634
:10550000ED91FC9115970190F081E02D00851185BA
:105510008FEF89830115110509F472C0D8016D90D0
:105520007C90A280B38020E030E060E070E080E01A
:1055300090E0861597050CF5F801A281B381A20FC2
:10554000B31F1296ED91FC911397EE0FFF1FEA0D1A
:10555000FB1D0190F081E02D16960D90BC91A02DC1
:10556000EA9FA001EB9F500DFA9F500D1124640F8C
:10557000751F0196285F3F4FDCCF83E190E00E94CA
:1055800048228111B1C0C12CD12CE12CF12CE614A0
:10559000F7047CF5D8011296ED91FC911397EC0D70
:1055A000FD1D80809180A281B381AA0FBB1FAA0D2F
:1055B000BB1D2D913C9186819781289F2001299FB9
:1055C000500C389F500C1124B201C4010E94832258
:1055D000382E920140E050E06981C401CDD1898329
:1055E000B8E0CB0ED11C31107FC0EFEFEE1AFE0AEF
:1055F000CECF61E070E0CE0101960E94832274C09C
:1056000060E070E083E190E00E9448226DC040E0DD
:1056100050E060E070E081E190E0CAD9811164C09F
:10562000812C912C5401C501B4010E94250C80915C
:10563000B404882321F0A701C501B40141DAA70110
:10564000C501B4010E94250B8A9489288A288B28D9
:1056500029F0812C912C54018394E5CF109262079C
:105660001092610710926E0710926D0780915E078D
:1056700090915F070E94402237C081E090E09093B4
:10568000B6048093B50440E050E060E070E086E14D
:1056900090E01FCF81E0D5018C9326C08D859E853B
:1056A0000E94C622009731F42FEF3FEFA90161E07D
:1056B00070E013C0FC012081318142815381CA0115
:1056C000B9012C8B3D8B4E8B5F8B0E94FC0F2C897C
:1056D0003D894E895F8960E070E08EE190E09AD963
:1056E00003C0C7010E94A72267960FB6F894DEBFD9
:1056F0000FBECDBFDF91CF911F910F91FF90EF9023
:10570000DF90CF90BF90AF909F908F907F906F90E1
:105710005F904F903F900895CF92DF92EF92FF926B
:10572000CF93DF93EC01C12CD12C7601C701B601D8
:105730000E94250CAE01C701B601C2D9AE01C70156
:10574000B6010E94250B80915A0790915B07009744
:1057500029F0ABD510925B0710925A07CA94CD2856
:10576000CE28CF2829F0C12CD12C7601C394DECFCE
:1057700080916107882359F040E050E060E070E0DC
:1057800084E190E015D9F82E1092610701C0F12C48
:1057900080916207882341F01092620781E090E0D7
:1057A0009093C7028093C60280915E0790915F0735
:1057B0000E94432280915E0790915F070E943822E9
:1057C0008F2DDF91CF91FF90EF90DF90CF900895D4
:1057D000CF93DF93EC01AC0160E070E0CB010E945D
:1057E0006214AE0161E070E080E090E0DF91CF9163
:1057F0000C94621460E070E0CB010E94CE1461E072
:1058000070E080E090E00C94CE14CF92DF92EF92A3
:10581000FF920F931F93CF93DF93EC016A017B01FB
:1058200000E010E098010E944C1001E010E020E040
:1058300030E0B701A601CE010E944C10DF91CF915C
:105840001F910F91FF90EF90DF90CF9008950E94ED
:10585000872168EE73E080E090E00E94E81980E024
:1058600090E0089526E040E050E16EE070E084ECC6
:1058700094E00E94E91C84EC94E00E94331C892B84
:1058800029F084EC94E00E944D1CF5CF80E090E07C
:105890000895AF92BF92CF92DF92EF92FF920F9353
:1058A0001F93CF93DF931F921F92CDB7DEB77A017C
:1058B0008901F9011182108284EC94E069837A8372
:1058C0000E94331C69817A81892B99F15B01DD2467
:1058D000D39485E6C82E80916F07811124C084EC93
:1058E00094E00E944D1C85369105A9F7D0926F0770
:1058F000F501C1925F01F801808191810196918348
:105900008083E9CF84EC94E00E944D1C8F3FFFEF31
:105910009F0749F0F50181935F01F8018081918132
:10592000019691838083F801808191818E159F0576
:1059300048F380E090E00F900F90DF91CF911F919E
:105940000F91FF90EF90DF90CF90BF90AF900895B0
:105950000F931F93CF93DF93EA01890184EC94E0C6
:105960000E94C81FF801D183C08380E090E0DF91DE
:10597000CF911F910F910895DC01A40FB51F240F43
:10598000351FAD01481B590B4217530738F4ED91F1
:10599000E627F0E0E558FD4F6491F3CF862F089598
:1059A0009A01AB016FEFE8CFCF93FC01E60FF71F31
:1059B000E40FF51FC081F4DF91E0C81390E0892F58
:1059C000CF9108958091710791E0980F909371079E
:1059D000882349F021E030E0309373072093720769
:1059E00080937107089578940E943D02F894809105
:1059F00071078150809371070C947216DF92EF92B9
:105A0000FF920F931F93CF93DF931F921F92CDB7F7
:105A1000DEB7FF24F394FA820E94211A0E94162115
:105A200000919F031091A003F8011182108260E0A1
:105A300070E080E090E00E947B160E94D906789486
:105A4000C80188529F4F0E947A1682E090E00E941F
:105A500076161982AE014F5F5F4F62E070E0F80189
:105A6000828193810E9420168981882321F0F80188
:105A7000E252FF4FF0820E948116F8940E94682142
:105A8000F80180819181892B29F481E0E252FF4F56
:105A90009081911180E08A83789478947801FEED6A
:105AA000EF0EF11CDD24D3948A81882379F11982C9
:105AB000AE014F5F5F4F62E070E0F8018281938139
:105AC0000E945C168981882311F0F701D082F801C9
:105AD00080819181892B39F481E0F70190819111C6
